{
  "contractName": "Bloc",
  "abi": [
    {
      "inputs": [
        {
          "internalType": "string",
          "name": "_title",
          "type": "string"
        },
        {
          "internalType": "string",
          "name": "_desc",
          "type": "string"
        },
        {
          "internalType": "string",
          "name": "_priority",
          "type": "string"
        },
        {
          "internalType": "bool",
          "name": "_status",
          "type": "bool"
        },
        {
          "internalType": "string",
          "name": "_date",
          "type": "string"
        }
      ],
      "name": "addTask",
      "outputs": [],
      "stateMutability": "nonpayable",
      "type": "function"
    },
    {
      "inputs": [
        {
          "internalType": "uint256",
          "name": "id",
          "type": "uint256"
        }
      ],
      "name": "getTask",
      "outputs": [
        {
          "components": [
            {
              "internalType": "uint256",
              "name": "id",
              "type": "uint256"
            },
            {
              "internalType": "string",
              "name": "title",
              "type": "string"
            },
            {
              "internalType": "bool",
              "name": "status",
              "type": "bool"
            },
            {
              "internalType": "string",
              "name": "desc",
              "type": "string"
            },
            {
              "internalType": "string",
              "name": "priority",
              "type": "string"
            },
            {
              "internalType": "string",
              "name": "date",
              "type": "string"
            }
          ],
          "internalType": "struct Bloc.Task",
          "name": "",
          "type": "tuple"
        }
      ],
      "stateMutability": "view",
      "type": "function",
      "constant": true
    },
    {
      "inputs": [
        {
          "internalType": "uint256",
          "name": "id",
          "type": "uint256"
        },
        {
          "internalType": "string",
          "name": "_title",
          "type": "string"
        },
        {
          "internalType": "string",
          "name": "_desc",
          "type": "string"
        },
        {
          "internalType": "string",
          "name": "_priority",
          "type": "string"
        },
        {
          "internalType": "bool",
          "name": "_status",
          "type": "bool"
        },
        {
          "internalType": "string",
          "name": "_date",
          "type": "string"
        }
      ],
      "name": "updateTask",
      "outputs": [],
      "stateMutability": "nonpayable",
      "type": "function"
    },
    {
      "inputs": [
        {
          "internalType": "uint256",
          "name": "id",
          "type": "uint256"
        }
      ],
      "name": "deleteTask",
      "outputs": [],
      "stateMutability": "nonpayable",
      "type": "function"
    },
    {
      "inputs": [],
      "name": "getTaskCount",
      "outputs": [
        {
          "internalType": "uint256",
          "name": "",
          "type": "uint256"
        }
      ],
      "stateMutability": "view",
      "type": "function",
      "constant": true
    }
  ],
  "bytecode": "0x6080604052600060015534801561001557600080fd5b506116f1806100256000396000f3fe608060405234801561001057600080fd5b50600436106100575760003560e01c80631d65e77e1461005c57806335fff5e41461008c578063560f3192146100a8578063c17a340e146100c4578063fef419d3146100e2575b600080fd5b61007660048036038101906100719190610c2a565b6100fe565b6040516100839190610daf565b60405180910390f35b6100a660048036038101906100a19190610e62565b6103e9565b005b6100c260048036038101906100bd9190610c2a565b610632565b005b6100cc6108bd565b6040516100d99190610f81565b60405180910390f35b6100fc60048036038101906100f79190610f9c565b610906565b005b610106610b55565b60008060003373ffffffffffffffffffffffffffffffffffffffff1673ffffffffffffffffffffffffffffffffffffffff168152602001908152602001600020838154811061015857610157611098565b5b90600052602060002090600602019050806040518060c00160405290816000820154815260200160018201805461018e906110f6565b80601f01602080910402602001604051908101604052809291908181526020018280546101ba906110f6565b80156102075780601f106101dc57610100808354040283529160200191610207565b820191906000526020600020905b8154815290600101906020018083116101ea57829003601f168201915b505050505081526020016002820160009054906101000a900460ff1615151515815260200160038201805461023b906110f6565b80601f0160208091040260200160405190810160405280929190818152602001828054610267906110f6565b80156102b45780601f10610289576101008083540402835291602001916102b4565b820191906000526020600020905b81548152906001019060200180831161029757829003601f168201915b505050505081526020016004820180546102cd906110f6565b80601f01602080910402602001604051908101604052809291908181526020018280546102f9906110f6565b80156103465780601f1061031b57610100808354040283529160200191610346565b820191906000526020600020905b81548152906001019060200180831161032957829003601f168201915b5050505050815260200160058201805461035f906110f6565b80601f016020809104026020016040519081016040528092919081815260200182805461038b906110f6565b80156103d85780601f106103ad576101008083540402835291602001916103d8565b820191906000526020600020905b8154815290600101906020018083116103bb57829003601f168201915b505050505081525050915050919050565b88886000803373ffffffffffffffffffffffffffffffffffffffff1673ffffffffffffffffffffffffffffffffffffffff1681526020019081526020016000208c8154811061043b5761043a611098565b5b9060005260206000209060060201600101918261045992919061130d565b50826000803373ffffffffffffffffffffffffffffffffffffffff1673ffffffffffffffffffffffffffffffffffffffff1681526020019081526020016000208b815481106104ab576104aa611098565b5b906000526020600020906006020160020160006101000a81548160ff02191690831515021790555086866000803373ffffffffffffffffffffffffffffffffffffffff1673ffffffffffffffffffffffffffffffffffffffff1681526020019081526020016000208c8154811061052557610524611098565b5b9060005260206000209060060201600301918261054392919061130d565b5084846000803373ffffffffffffffffffffffffffffffffffffffff1673ffffffffffffffffffffffffffffffffffffffff1681526020019081526020016000208c8154811061059657610595611098565b5b906000526020600020906006020160040191826105b492919061130d565b5081816000803373ffffffffffffffffffffffffffffffffffffffff1673ffffffffffffffffffffffffffffffffffffffff1681526020019081526020016000208c8154811061060757610606611098565b5b9060005260206000209060060201600501918261062592919061130d565b5050505050505050505050565b60008190505b60016000803373ffffffffffffffffffffffffffffffffffffffff1673ffffffffffffffffffffffffffffffffffffffff16815260200190815260200160002080549050610686919061140c565b8110156107f6576000803373ffffffffffffffffffffffffffffffffffffffff1673ffffffffffffffffffffffffffffffffffffffff1681526020019081526020016000206001826106d89190611440565b815481106106e9576106e8611098565b5b90600052602060002090600602016000803373ffffffffffffffffffffffffffffffffffffffff1673ffffffffffffffffffffffffffffffffffffffff168152602001908152602001600020828154811061074757610746611098565b5b90600052602060002090600602016000820154816000015560018201816001019081610773919061148a565b506002820160009054906101000a900460ff168160020160006101000a81548160ff021916908315150217905550600382018160030190816107b5919061148a565b50600482018160040190816107ca919061148a565b50600582018160050190816107df919061148a565b5090505080806107ee90611572565b915050610638565b506000803373ffffffffffffffffffffffffffffffffffffffff1673ffffffffffffffffffffffffffffffffffffffff168152602001908152602001600020805480610845576108446115ba565b5b60019003818190600052602060002090600602016000808201600090556001820160006108729190610b8d565b6002820160006101000a81549060ff02191690556003820160006108969190610b8d565b6004820160006108a69190610b8d565b6005820160006108b69190610b8d565b5050905550565b60008060003373ffffffffffffffffffffffffffffffffffffffff1673ffffffffffffffffffffffffffffffffffffffff16815260200190815260200160002080549050905090565b6000803373ffffffffffffffffffffffffffffffffffffffff1673ffffffffffffffffffffffffffffffffffffffff1681526020019081526020016000206040518060c0016040528060015481526020018b8b8080601f016020809104026020016040519081016040528093929190818152602001838380828437600081840152601f19601f820116905080830192505050505050508152602001851515815260200189898080601f016020809104026020016040519081016040528093929190818152602001838380828437600081840152601f19601f82011690508083019250505050505050815260200187878080601f016020809104026020016040519081016040528093929190818152602001838380828437600081840152601f19601f82011690508083019250505050505050815260200184848080601f016020809104026020016040519081016040528093929190818152602001838380828437600081840152601f19601f820116905080830192505050505050508152509080600181540180825580915050600190039060005260206000209060060201600090919091909150600082015181600001556020820151816001019081610acd91906115e9565b5060408201518160020160006101000a81548160ff0219169083151502179055506060820151816003019081610b0391906115e9565b506080820151816004019081610b1991906115e9565b5060a0820151816005019081610b2f91906115e9565b50505060016000815480929190610b4590611572565b9190505550505050505050505050565b6040518060c0016040528060008152602001606081526020016000151581526020016060815260200160608152602001606081525090565b508054610b99906110f6565b6000825580601f10610bab5750610bca565b601f016020900490600052602060002090810190610bc99190610bcd565b5b50565b5b80821115610be6576000816000905550600101610bce565b5090565b600080fd5b600080fd5b6000819050919050565b610c0781610bf4565b8114610c1257600080fd5b50565b600081359050610c2481610bfe565b92915050565b600060208284031215610c4057610c3f610bea565b5b6000610c4e84828501610c15565b91505092915050565b610c6081610bf4565b82525050565b600081519050919050565b600082825260208201905092915050565b60005b83811015610ca0578082015181840152602081019050610c85565b60008484015250505050565b6000601f19601f8301169050919050565b6000610cc882610c66565b610cd28185610c71565b9350610ce2818560208601610c82565b610ceb81610cac565b840191505092915050565b60008115159050919050565b610d0b81610cf6565b82525050565b600060c083016000830151610d296000860182610c57565b5060208301518482036020860152610d418282610cbd565b9150506040830151610d566040860182610d02565b5060608301518482036060860152610d6e8282610cbd565b91505060808301518482036080860152610d888282610cbd565b91505060a083015184820360a0860152610da28282610cbd565b9150508091505092915050565b60006020820190508181036000830152610dc98184610d11565b905092915050565b600080fd5b600080fd5b600080fd5b60008083601f840112610df657610df5610dd1565b5b8235905067ffffffffffffffff811115610e1357610e12610dd6565b5b602083019150836001820283011115610e2f57610e2e610ddb565b5b9250929050565b610e3f81610cf6565b8114610e4a57600080fd5b50565b600081359050610e5c81610e36565b92915050565b60008060008060008060008060008060c08b8d031215610e8557610e84610bea565b5b6000610e938d828e01610c15565b9a505060208b013567ffffffffffffffff811115610eb457610eb3610bef565b5b610ec08d828e01610de0565b995099505060408b013567ffffffffffffffff811115610ee357610ee2610bef565b5b610eef8d828e01610de0565b975097505060608b013567ffffffffffffffff811115610f1257610f11610bef565b5b610f1e8d828e01610de0565b95509550506080610f318d828e01610e4d565b93505060a08b013567ffffffffffffffff811115610f5257610f51610bef565b5b610f5e8d828e01610de0565b92509250509295989b9194979a5092959850565b610f7b81610bf4565b82525050565b6000602082019050610f966000830184610f72565b92915050565b600080600080600080600080600060a08a8c031215610fbe57610fbd610bea565b5b60008a013567ffffffffffffffff811115610fdc57610fdb610bef565b5b610fe88c828d01610de0565b995099505060208a013567ffffffffffffffff81111561100b5761100a610bef565b5b6110178c828d01610de0565b975097505060408a013567ffffffffffffffff81111561103a57611039610bef565b5b6110468c828d01610de0565b955095505060606110598c828d01610e4d565b93505060808a013567ffffffffffffffff81111561107a57611079610bef565b5b6110868c828d01610de0565b92509250509295985092959850929598565b7f4e487b7100000000000000000000000000000000000000000000000000000000600052603260045260246000fd5b7f4e487b7100000000000000000000000000000000000000000000000000000000600052602260045260246000fd5b6000600282049050600182168061110e57607f821691505b602082108103611121576111206110c7565b5b50919050565b600082905092915050565b7f4e487b7100000000000000000000000000000000000000000000000000000000600052604160045260246000fd5b60008190508160005260206000209050919050565b60006020601f8301049050919050565b600082821b905092915050565b6000600883026111c37fffffffffffffffffffffffffffffffffffffffffffffffffffffffffffffffff82611186565b6111cd8683611186565b95508019841693508086168417925050509392505050565b6000819050919050565b600061120a61120561120084610bf4565b6111e5565b610bf4565b9050919050565b6000819050919050565b611224836111ef565b61123861123082611211565b848454611193565b825550505050565b600090565b61124d611240565b61125881848461121b565b505050565b5b8181101561127c57611271600082611245565b60018101905061125e565b5050565b601f8211156112c15761129281611161565b61129b84611176565b810160208510156112aa578190505b6112be6112b685611176565b83018261125d565b50505b505050565b600082821c905092915050565b60006112e4600019846008026112c6565b1980831691505092915050565b60006112fd83836112d3565b9150826002028217905092915050565b6113178383611127565b67ffffffffffffffff8111156113305761132f611132565b5b61133a82546110f6565b611345828285611280565b6000601f8311600181146113745760008415611362578287013590505b61136c85826112f1565b8655506113d4565b601f19841661138286611161565b60005b828110156113aa57848901358255600182019150602085019450602081019050611385565b868310156113c757848901356113c3601f8916826112d3565b8355505b6001600288020188555050505b50505050505050565b7f4e487b7100000000000000000000000000000000000000000000000000000000600052601160045260246000fd5b600061141782610bf4565b915061142283610bf4565b925082820390508181111561143a576114396113dd565b5b92915050565b600061144b82610bf4565b915061145683610bf4565b925082820190508082111561146e5761146d6113dd565b5b92915050565b600081549050611483816110f6565b9050919050565b818103611498575050611570565b6114a182611474565b67ffffffffffffffff8111156114ba576114b9611132565b5b6114c482546110f6565b6114cf828285611280565b6000601f8311600181146114fe57600084156114ec578287015490505b6114f685826112f1565b865550611569565b601f19841661150c87611161565b965061151786611161565b60005b8281101561153f5784890154825560018201915060018501945060208101905061151a565b8683101561155c5784890154611558601f8916826112d3565b8355505b6001600288020188555050505b5050505050505b565b600061157d82610bf4565b91507fffffffffffffffffffffffffffffffffffffffffffffffffffffffffffffffff82036115af576115ae6113dd565b5b600182019050919050565b7f4e487b7100000000000000000000000000000000000000000000000000000000600052603160045260246000fd5b6115f282610c66565b67ffffffffffffffff81111561160b5761160a611132565b5b61161582546110f6565b611620828285611280565b600060209050601f8311600181146116535760008415611641578287015190505b61164b85826112f1565b8655506116b3565b601f19841661166186611161565b60005b8281101561168957848901518255600182019150602085019450602081019050611664565b868310156116a657848901516116a2601f8916826112d3565b8355505b6001600288020188555050505b50505050505056fea264697066735822122090938e8f46c9d060ba63e1eae0b719f3ecc3f49c9d61092baf070863814a464964736f6c63430008110033",
  "immutableReferences": {},
  "source": "// SPDX-License-Identifier: MIT\r\npragma solidity ^0.8.0;\r\n\r\ncontract Bloc {\r\n    struct Task {\r\n        uint256 id;\r\n        string title;\r\n        bool status;\r\n        string desc;\r\n        string priority;\r\n        string date;\r\n    }\r\n\r\n    mapping(address => Task[]) private tasks;\r\n    uint256 _id = 0;\r\n\r\n    function addTask(\r\n        string calldata _title,\r\n        string calldata _desc,\r\n        string calldata _priority,\r\n        bool _status,\r\n        string calldata _date\r\n    ) external {\r\n        tasks[msg.sender].push(\r\n            Task({\r\n                id: _id,\r\n                title: _title,\r\n                status: _status,\r\n                desc: _desc,\r\n                priority: _priority,\r\n                date: _date\r\n            })\r\n        );\r\n        _id++;\r\n    }\r\n\r\n    function getTask(uint256 id) external view returns (Task memory) {\r\n        Task storage task = tasks[msg.sender][id];\r\n        return task;\r\n    }\r\n\r\n    function updateTask(\r\n        uint256 id,\r\n        string calldata _title,\r\n        string calldata _desc,\r\n        string calldata _priority,\r\n        bool _status,\r\n        string calldata _date\r\n    ) external {\r\n        tasks[msg.sender][id].title = _title;\r\n        tasks[msg.sender][id].status = _status;\r\n        tasks[msg.sender][id].desc = _desc;\r\n        tasks[msg.sender][id].priority = _priority;\r\n        tasks[msg.sender][id].date = _date;\r\n    }\r\n\r\n    function deleteTask(uint256 id) external {\r\n        for (uint256 i = id; i < tasks[msg.sender].length - 1; i++) {\r\n            tasks[msg.sender][i] = tasks[msg.sender][i + 1];\r\n        }\r\n        tasks[msg.sender].pop();\r\n    }\r\n\r\n    function getTaskCount() external view returns (uint256) {\r\n        return tasks[msg.sender].length;\r\n    }\r\n}\r\n",
  "sourcePath": "D:\\Yahik_project\\task\\contracts\\Todo.sol",
  "compiler": {
    "name": "solc",
    "version": "0.8.17+commit.8df45f5f.Emscripten.clang"
  },
  "schemaVersion": "3.4.11",
  "updatedAt": "2022-12-21T11:37:41.814Z",
  "networkType": "ethereum",
  "devdoc": {
    "kind": "dev",
    "methods": {},
    "version": 1
  },
  "userdoc": {
    "kind": "user",
    "methods": {},
    "version": 1
  }
}