{
  "contractName": "Bloc",
  "abi": [
    {
      "inputs": [
        {
          "internalType": "string",
          "name": "_title",
          "type": "string"
        },
        {
          "internalType": "string",
          "name": "_desc",
          "type": "string"
        },
        {
          "internalType": "string",
          "name": "_priority",
          "type": "string"
        },
        {
          "internalType": "bool",
          "name": "_status",
          "type": "bool"
        }
      ],
      "name": "addTask",
      "outputs": [],
      "stateMutability": "nonpayable",
      "type": "function"
    },
    {
      "inputs": [
        {
          "internalType": "uint256",
          "name": "id",
          "type": "uint256"
        }
      ],
      "name": "getTask",
      "outputs": [
        {
          "components": [
            {
              "internalType": "uint256",
              "name": "id",
              "type": "uint256"
            },
            {
              "internalType": "string",
              "name": "title",
              "type": "string"
            },
            {
              "internalType": "bool",
              "name": "status",
              "type": "bool"
            },
            {
              "internalType": "string",
              "name": "desc",
              "type": "string"
            },
            {
              "internalType": "string",
              "name": "priority",
              "type": "string"
            }
          ],
          "internalType": "struct Bloc.Task",
          "name": "",
          "type": "tuple"
        }
      ],
      "stateMutability": "view",
      "type": "function",
      "constant": true
    },
    {
      "inputs": [
        {
          "internalType": "uint256",
          "name": "id",
          "type": "uint256"
        },
        {
          "internalType": "string",
          "name": "_title",
          "type": "string"
        },
        {
          "internalType": "string",
          "name": "_desc",
          "type": "string"
        },
        {
          "internalType": "string",
          "name": "_priority",
          "type": "string"
        },
        {
          "internalType": "bool",
          "name": "_status",
          "type": "bool"
        }
      ],
      "name": "updateTask",
      "outputs": [],
      "stateMutability": "nonpayable",
      "type": "function"
    },
    {
      "inputs": [
        {
          "internalType": "uint256",
          "name": "id",
          "type": "uint256"
        }
      ],
      "name": "deleteTask",
      "outputs": [],
      "stateMutability": "nonpayable",
      "type": "function"
    },
    {
      "inputs": [],
      "name": "getTaskCount",
      "outputs": [
        {
          "internalType": "uint256",
          "name": "",
          "type": "uint256"
        }
      ],
      "stateMutability": "view",
      "type": "function",
      "constant": true
    }
  ],
  "bytecode": "0x6080604052600060015534801561001557600080fd5b50611192806100256000396000f3fe608060405234801561001057600080fd5b50600436106100575760003560e01c80631d65e77e1461005c57806324ff45341461008c578063560f3192146100a8578063c17a340e146100c4578063df40171c146100e2575b600080fd5b610076600480360381019061007191906108e1565b6100fe565b6040516100839190610a4c565b60405180910390f35b6100a660048036038101906100a19190610aff565b610357565b005b6100c260048036038101906100bd91906108e1565b61052d565b005b6100cc6105dd565b6040516100d99190610bea565b60405180910390f35b6100fc60048036038101906100f79190610c05565b610626565b005b610106610813565b60008060003373ffffffffffffffffffffffffffffffffffffffff1673ffffffffffffffffffffffffffffffffffffffff168152602001908152602001600020838154811061015857610157610cce565b5b90600052602060002090600502019050806040518060a00160405290816000820154815260200160018201805461018e90610d2c565b80601f01602080910402602001604051908101604052809291908181526020018280546101ba90610d2c565b80156102075780601f106101dc57610100808354040283529160200191610207565b820191906000526020600020905b8154815290600101906020018083116101ea57829003601f168201915b505050505081526020016002820160009054906101000a900460ff1615151515815260200160038201805461023b90610d2c565b80601f016020809104026020016040519081016040528092919081815260200182805461026790610d2c565b80156102b45780601f10610289576101008083540402835291602001916102b4565b820191906000526020600020905b81548152906001019060200180831161029757829003601f168201915b505050505081526020016004820180546102cd90610d2c565b80601f01602080910402602001604051908101604052809291908181526020018280546102f990610d2c565b80156103465780601f1061031b57610100808354040283529160200191610346565b820191906000526020600020905b81548152906001019060200180831161032957829003601f168201915b505050505081525050915050919050565b86866000803373ffffffffffffffffffffffffffffffffffffffff1673ffffffffffffffffffffffffffffffffffffffff1681526020019081526020016000208a815481106103a9576103a8610cce565b5b906000526020600020906005020160010191826103c7929190610f43565b50806000803373ffffffffffffffffffffffffffffffffffffffff1673ffffffffffffffffffffffffffffffffffffffff168152602001908152602001600020898154811061041957610418610cce565b5b906000526020600020906005020160020160006101000a81548160ff02191690831515021790555084846000803373ffffffffffffffffffffffffffffffffffffffff1673ffffffffffffffffffffffffffffffffffffffff1681526020019081526020016000208a8154811061049357610492610cce565b5b906000526020600020906005020160030191826104b1929190610f43565b5082826000803373ffffffffffffffffffffffffffffffffffffffff1673ffffffffffffffffffffffffffffffffffffffff1681526020019081526020016000208a8154811061050457610503610cce565b5b90600052602060002090600502016004019182610522929190610f43565b505050505050505050565b6000803373ffffffffffffffffffffffffffffffffffffffff1673ffffffffffffffffffffffffffffffffffffffff168152602001908152602001600020818154811061057d5761057c610cce565b5b90600052602060002090600502016000808201600090556001820160006105a49190610844565b6002820160006101000a81549060ff02191690556003820160006105c89190610844565b6004820160006105d89190610844565b505050565b60008060003373ffffffffffffffffffffffffffffffffffffffff1673ffffffffffffffffffffffffffffffffffffffff16815260200190815260200160002080549050905090565b6000803373ffffffffffffffffffffffffffffffffffffffff1673ffffffffffffffffffffffffffffffffffffffff1681526020019081526020016000206040518060a00160405280600154815260200189898080601f016020809104026020016040519081016040528093929190818152602001838380828437600081840152601f19601f820116905080830192505050505050508152602001831515815260200187878080601f016020809104026020016040519081016040528093929190818152602001838380828437600081840152601f19601f82011690508083019250505050505050815260200185858080601f016020809104026020016040519081016040528093929190818152602001838380828437600081840152601f19601f8201169050808301925050505050505081525090806001815401808255809150506001900390600052602060002090600502016000909190919091506000820151816000015560208201518160010190816107a39190611013565b5060408201518160020160006101000a81548160ff02191690831515021790555060608201518160030190816107d99190611013565b5060808201518160040190816107ef9190611013565b5050506001600081548092919061080590611114565b919050555050505050505050565b6040518060a00160405280600081526020016060815260200160001515815260200160608152602001606081525090565b50805461085090610d2c565b6000825580601f106108625750610881565b601f0160209004906000526020600020908101906108809190610884565b5b50565b5b8082111561089d576000816000905550600101610885565b5090565b600080fd5b600080fd5b6000819050919050565b6108be816108ab565b81146108c957600080fd5b50565b6000813590506108db816108b5565b92915050565b6000602082840312156108f7576108f66108a1565b5b6000610905848285016108cc565b91505092915050565b610917816108ab565b82525050565b600081519050919050565b600082825260208201905092915050565b60005b8381101561095757808201518184015260208101905061093c565b60008484015250505050565b6000601f19601f8301169050919050565b600061097f8261091d565b6109898185610928565b9350610999818560208601610939565b6109a281610963565b840191505092915050565b60008115159050919050565b6109c2816109ad565b82525050565b600060a0830160008301516109e0600086018261090e565b50602083015184820360208601526109f88282610974565b9150506040830151610a0d60408601826109b9565b5060608301518482036060860152610a258282610974565b91505060808301518482036080860152610a3f8282610974565b9150508091505092915050565b60006020820190508181036000830152610a6681846109c8565b905092915050565b600080fd5b600080fd5b600080fd5b60008083601f840112610a9357610a92610a6e565b5b8235905067ffffffffffffffff811115610ab057610aaf610a73565b5b602083019150836001820283011115610acc57610acb610a78565b5b9250929050565b610adc816109ad565b8114610ae757600080fd5b50565b600081359050610af981610ad3565b92915050565b60008060008060008060008060a0898b031215610b1f57610b1e6108a1565b5b6000610b2d8b828c016108cc565b985050602089013567ffffffffffffffff811115610b4e57610b4d6108a6565b5b610b5a8b828c01610a7d565b9750975050604089013567ffffffffffffffff811115610b7d57610b7c6108a6565b5b610b898b828c01610a7d565b9550955050606089013567ffffffffffffffff811115610bac57610bab6108a6565b5b610bb88b828c01610a7d565b93509350506080610bcb8b828c01610aea565b9150509295985092959890939650565b610be4816108ab565b82525050565b6000602082019050610bff6000830184610bdb565b92915050565b60008060008060008060006080888a031215610c2457610c236108a1565b5b600088013567ffffffffffffffff811115610c4257610c416108a6565b5b610c4e8a828b01610a7d565b9750975050602088013567ffffffffffffffff811115610c7157610c706108a6565b5b610c7d8a828b01610a7d565b9550955050604088013567ffffffffffffffff811115610ca057610c9f6108a6565b5b610cac8a828b01610a7d565b93509350506060610cbf8a828b01610aea565b91505092959891949750929550565b7f4e487b7100000000000000000000000000000000000000000000000000000000600052603260045260246000fd5b7f4e487b7100000000000000000000000000000000000000000000000000000000600052602260045260246000fd5b60006002820490506001821680610d4457607f821691505b602082108103610d5757610d56610cfd565b5b50919050565b600082905092915050565b7f4e487b7100000000000000000000000000000000000000000000000000000000600052604160045260246000fd5b60008190508160005260206000209050919050565b60006020601f8301049050919050565b600082821b905092915050565b600060088302610df97fffffffffffffffffffffffffffffffffffffffffffffffffffffffffffffffff82610dbc565b610e038683610dbc565b95508019841693508086168417925050509392505050565b6000819050919050565b6000610e40610e3b610e36846108ab565b610e1b565b6108ab565b9050919050565b6000819050919050565b610e5a83610e25565b610e6e610e6682610e47565b848454610dc9565b825550505050565b600090565b610e83610e76565b610e8e818484610e51565b505050565b5b81811015610eb257610ea7600082610e7b565b600181019050610e94565b5050565b601f821115610ef757610ec881610d97565b610ed184610dac565b81016020851015610ee0578190505b610ef4610eec85610dac565b830182610e93565b50505b505050565b600082821c905092915050565b6000610f1a60001984600802610efc565b1980831691505092915050565b6000610f338383610f09565b9150826002028217905092915050565b610f4d8383610d5d565b67ffffffffffffffff811115610f6657610f65610d68565b5b610f708254610d2c565b610f7b828285610eb6565b6000601f831160018114610faa5760008415610f98578287013590505b610fa28582610f27565b86555061100a565b601f198416610fb886610d97565b60005b82811015610fe057848901358255600182019150602085019450602081019050610fbb565b86831015610ffd5784890135610ff9601f891682610f09565b8355505b6001600288020188555050505b50505050505050565b61101c8261091d565b67ffffffffffffffff81111561103557611034610d68565b5b61103f8254610d2c565b61104a828285610eb6565b600060209050601f83116001811461107d576000841561106b578287015190505b6110758582610f27565b8655506110dd565b601f19841661108b86610d97565b60005b828110156110b35784890151825560018201915060208501945060208101905061108e565b868310156110d057848901516110cc601f891682610f09565b8355505b6001600288020188555050505b505050505050565b7f4e487b7100000000000000000000000000000000000000000000000000000000600052601160045260246000fd5b600061111f826108ab565b91507fffffffffffffffffffffffffffffffffffffffffffffffffffffffffffffffff8203611151576111506110e5565b5b60018201905091905056fea26469706673582212206b66de80e26b0f0063d23eeca6e1e35d18a5cbadfc2c4b1c95af629580d641e564736f6c63430008110033",
  "immutableReferences": {},
  "source": "// SPDX-License-Identifier: MIT\r\npragma solidity ^0.8.0;\r\n\r\ncontract Bloc{\r\n\r\n    struct Task{\r\n        uint id;\r\n        string title;\r\n        bool status;\r\n        string desc;\r\n        string priority;\r\n    } \r\n\r\n   mapping (address => Task[]) private tasks;\r\n   uint _id=0;\r\n\r\n   function addTask(string calldata _title, string calldata _desc, string calldata _priority, bool _status) external{\r\n      tasks[msg.sender].push(Task({\r\n          id: _id,\r\n          title:_title,\r\n          status:_status,\r\n          desc: _desc,\r\n          priority: _priority\r\n      }));\r\n      _id++;\r\n   } \r\n\r\n   function getTask(uint id) external view returns (Task memory){\r\n       Task storage task = tasks[msg.sender][id];\r\n       return task;\r\n   }\r\n\r\n   function updateTask(uint256 id,string calldata _title, string calldata _desc, string calldata _priority, bool _status) external{\r\n        tasks[msg.sender][id].title = _title;\r\n        tasks[msg.sender][id].status = _status;\r\n        tasks[msg.sender][id].desc = _desc;\r\n        tasks[msg.sender][id].priority = _priority;\r\n   }\r\n\r\n   function deleteTask(uint256 id) external{\r\n       delete tasks[msg.sender][id];\r\n   } \r\n\r\n   function getTaskCount() external view returns (uint256){\r\n        return tasks[msg.sender].length;\r\n    }\r\n} ",
  "sourcePath": "D:\\Yahik_project\\task\\contracts\\Todo.sol",
  "compiler": {
    "name": "solc",
    "version": "0.8.17+commit.8df45f5f.Emscripten.clang"
  },
  "schemaVersion": "3.4.11",
  "updatedAt": "2022-12-20T05:37:36.323Z",
  "networkType": "ethereum",
  "devdoc": {
    "kind": "dev",
    "methods": {},
    "version": 1
  },
  "userdoc": {
    "kind": "user",
    "methods": {},
    "version": 1
  }
}