{
  "contractName": "Bloc",
  "abi": [
    {
      "inputs": [
        {
          "internalType": "string",
          "name": "_title",
          "type": "string"
        },
        {
          "internalType": "string",
          "name": "_desc",
          "type": "string"
        },
        {
          "internalType": "string",
          "name": "_priority",
          "type": "string"
        },
        {
          "internalType": "bool",
          "name": "_status",
          "type": "bool"
        },
        {
          "internalType": "string",
          "name": "_date",
          "type": "string"
        }
      ],
      "name": "addTask",
      "outputs": [],
      "stateMutability": "nonpayable",
      "type": "function"
    },
    {
      "inputs": [
        {
          "internalType": "uint256",
          "name": "id",
          "type": "uint256"
        },
        {
          "internalType": "address",
          "name": "account",
          "type": "address"
        }
      ],
      "name": "getTask",
      "outputs": [
        {
          "components": [
            {
              "internalType": "uint256",
              "name": "id",
              "type": "uint256"
            },
            {
              "internalType": "string",
              "name": "title",
              "type": "string"
            },
            {
              "internalType": "bool",
              "name": "status",
              "type": "bool"
            },
            {
              "internalType": "string",
              "name": "desc",
              "type": "string"
            },
            {
              "internalType": "string",
              "name": "priority",
              "type": "string"
            },
            {
              "internalType": "string",
              "name": "date",
              "type": "string"
            }
          ],
          "internalType": "struct Bloc.Task",
          "name": "",
          "type": "tuple"
        }
      ],
      "stateMutability": "view",
      "type": "function",
      "constant": true
    },
    {
      "inputs": [
        {
          "internalType": "uint256",
          "name": "id",
          "type": "uint256"
        },
        {
          "internalType": "string",
          "name": "_title",
          "type": "string"
        },
        {
          "internalType": "string",
          "name": "_desc",
          "type": "string"
        },
        {
          "internalType": "string",
          "name": "_priority",
          "type": "string"
        },
        {
          "internalType": "bool",
          "name": "_status",
          "type": "bool"
        },
        {
          "internalType": "string",
          "name": "_date",
          "type": "string"
        }
      ],
      "name": "updateTask",
      "outputs": [],
      "stateMutability": "nonpayable",
      "type": "function"
    },
    {
      "inputs": [
        {
          "internalType": "uint256",
          "name": "id",
          "type": "uint256"
        }
      ],
      "name": "deleteTask",
      "outputs": [],
      "stateMutability": "nonpayable",
      "type": "function"
    },
    {
      "inputs": [
        {
          "internalType": "address",
          "name": "account",
          "type": "address"
        }
      ],
      "name": "getTaskCount",
      "outputs": [
        {
          "internalType": "uint256",
          "name": "",
          "type": "uint256"
        }
      ],
      "stateMutability": "view",
      "type": "function",
      "constant": true
    }
  ],
  "bytecode": "0x6080604052600060015534801561001557600080fd5b506117d1806100256000396000f3fe608060405234801561001057600080fd5b50600436106100575760003560e01c806325b03c031461005c57806335fff5e41461008c578063560f3192146100a8578063c64ecb8f146100c4578063fef419d3146100f4575b600080fd5b61007660048036038101906100719190610c9d565b610110565b6040516100839190610e35565b60405180910390f35b6100a660048036038101906100a19190610ee8565b6103fc565b005b6100c260048036038101906100bd9190610ff8565b610645565b005b6100de60048036038101906100d99190611025565b6108d0565b6040516100eb9190611061565b60405180910390f35b61010e6004803603810190610109919061107c565b61091b565b005b610118610b6a565b60008060008473ffffffffffffffffffffffffffffffffffffffff1673ffffffffffffffffffffffffffffffffffffffff168152602001908152602001600020848154811061016a57610169611178565b5b90600052602060002090600602019050806040518060c0016040529081600082015481526020016001820180546101a0906111d6565b80601f01602080910402602001604051908101604052809291908181526020018280546101cc906111d6565b80156102195780601f106101ee57610100808354040283529160200191610219565b820191906000526020600020905b8154815290600101906020018083116101fc57829003601f168201915b505050505081526020016002820160009054906101000a900460ff1615151515815260200160038201805461024d906111d6565b80601f0160208091040260200160405190810160405280929190818152602001828054610279906111d6565b80156102c65780601f1061029b576101008083540402835291602001916102c6565b820191906000526020600020905b8154815290600101906020018083116102a957829003601f168201915b505050505081526020016004820180546102df906111d6565b80601f016020809104026020016040519081016040528092919081815260200182805461030b906111d6565b80156103585780601f1061032d57610100808354040283529160200191610358565b820191906000526020600020905b81548152906001019060200180831161033b57829003601f168201915b50505050508152602001600582018054610371906111d6565b80601f016020809104026020016040519081016040528092919081815260200182805461039d906111d6565b80156103ea5780601f106103bf576101008083540402835291602001916103ea565b820191906000526020600020905b8154815290600101906020018083116103cd57829003601f168201915b50505050508152505091505092915050565b88886000803373ffffffffffffffffffffffffffffffffffffffff1673ffffffffffffffffffffffffffffffffffffffff1681526020019081526020016000208c8154811061044e5761044d611178565b5b9060005260206000209060060201600101918261046c9291906113ed565b50826000803373ffffffffffffffffffffffffffffffffffffffff1673ffffffffffffffffffffffffffffffffffffffff1681526020019081526020016000208b815481106104be576104bd611178565b5b906000526020600020906006020160020160006101000a81548160ff02191690831515021790555086866000803373ffffffffffffffffffffffffffffffffffffffff1673ffffffffffffffffffffffffffffffffffffffff1681526020019081526020016000208c8154811061053857610537611178565b5b906000526020600020906006020160030191826105569291906113ed565b5084846000803373ffffffffffffffffffffffffffffffffffffffff1673ffffffffffffffffffffffffffffffffffffffff1681526020019081526020016000208c815481106105a9576105a8611178565b5b906000526020600020906006020160040191826105c79291906113ed565b5081816000803373ffffffffffffffffffffffffffffffffffffffff1673ffffffffffffffffffffffffffffffffffffffff1681526020019081526020016000208c8154811061061a57610619611178565b5b906000526020600020906006020160050191826106389291906113ed565b5050505050505050505050565b60008190505b60016000803373ffffffffffffffffffffffffffffffffffffffff1673ffffffffffffffffffffffffffffffffffffffff1681526020019081526020016000208054905061069991906114ec565b811015610809576000803373ffffffffffffffffffffffffffffffffffffffff1673ffffffffffffffffffffffffffffffffffffffff1681526020019081526020016000206001826106eb9190611520565b815481106106fc576106fb611178565b5b90600052602060002090600602016000803373ffffffffffffffffffffffffffffffffffffffff1673ffffffffffffffffffffffffffffffffffffffff168152602001908152602001600020828154811061075a57610759611178565b5b90600052602060002090600602016000820154816000015560018201816001019081610786919061156a565b506002820160009054906101000a900460ff168160020160006101000a81548160ff021916908315150217905550600382018160030190816107c8919061156a565b50600482018160040190816107dd919061156a565b50600582018160050190816107f2919061156a565b50905050808061080190611652565b91505061064b565b506000803373ffffffffffffffffffffffffffffffffffffffff1673ffffffffffffffffffffffffffffffffffffffff1681526020019081526020016000208054806108585761085761169a565b5b60019003818190600052602060002090600602016000808201600090556001820160006108859190610ba2565b6002820160006101000a81549060ff02191690556003820160006108a99190610ba2565b6004820160006108b99190610ba2565b6005820160006108c99190610ba2565b5050905550565b60008060008373ffffffffffffffffffffffffffffffffffffffff1673ffffffffffffffffffffffffffffffffffffffff168152602001908152602001600020805490509050919050565b6000803373ffffffffffffffffffffffffffffffffffffffff1673ffffffffffffffffffffffffffffffffffffffff1681526020019081526020016000206040518060c0016040528060015481526020018b8b8080601f016020809104026020016040519081016040528093929190818152602001838380828437600081840152601f19601f820116905080830192505050505050508152602001851515815260200189898080601f016020809104026020016040519081016040528093929190818152602001838380828437600081840152601f19601f82011690508083019250505050505050815260200187878080601f016020809104026020016040519081016040528093929190818152602001838380828437600081840152601f19601f82011690508083019250505050505050815260200184848080601f016020809104026020016040519081016040528093929190818152602001838380828437600081840152601f19601f820116905080830192505050505050508152509080600181540180825580915050600190039060005260206000209060060201600090919091909150600082015181600001556020820151816001019081610ae291906116c9565b5060408201518160020160006101000a81548160ff0219169083151502179055506060820151816003019081610b1891906116c9565b506080820151816004019081610b2e91906116c9565b5060a0820151816005019081610b4491906116c9565b50505060016000815480929190610b5a90611652565b9190505550505050505050505050565b6040518060c0016040528060008152602001606081526020016000151581526020016060815260200160608152602001606081525090565b508054610bae906111d6565b6000825580601f10610bc05750610bdf565b601f016020900490600052602060002090810190610bde9190610be2565b5b50565b5b80821115610bfb576000816000905550600101610be3565b5090565b600080fd5b600080fd5b6000819050919050565b610c1c81610c09565b8114610c2757600080fd5b50565b600081359050610c3981610c13565b92915050565b600073ffffffffffffffffffffffffffffffffffffffff82169050919050565b6000610c6a82610c3f565b9050919050565b610c7a81610c5f565b8114610c8557600080fd5b50565b600081359050610c9781610c71565b92915050565b60008060408385031215610cb457610cb3610bff565b5b6000610cc285828601610c2a565b9250506020610cd385828601610c88565b9150509250929050565b610ce681610c09565b82525050565b600081519050919050565b600082825260208201905092915050565b60005b83811015610d26578082015181840152602081019050610d0b565b60008484015250505050565b6000601f19601f8301169050919050565b6000610d4e82610cec565b610d588185610cf7565b9350610d68818560208601610d08565b610d7181610d32565b840191505092915050565b60008115159050919050565b610d9181610d7c565b82525050565b600060c083016000830151610daf6000860182610cdd565b5060208301518482036020860152610dc78282610d43565b9150506040830151610ddc6040860182610d88565b5060608301518482036060860152610df48282610d43565b91505060808301518482036080860152610e0e8282610d43565b91505060a083015184820360a0860152610e288282610d43565b9150508091505092915050565b60006020820190508181036000830152610e4f8184610d97565b905092915050565b600080fd5b600080fd5b600080fd5b60008083601f840112610e7c57610e7b610e57565b5b8235905067ffffffffffffffff811115610e9957610e98610e5c565b5b602083019150836001820283011115610eb557610eb4610e61565b5b9250929050565b610ec581610d7c565b8114610ed057600080fd5b50565b600081359050610ee281610ebc565b92915050565b60008060008060008060008060008060c08b8d031215610f0b57610f0a610bff565b5b6000610f198d828e01610c2a565b9a505060208b013567ffffffffffffffff811115610f3a57610f39610c04565b5b610f468d828e01610e66565b995099505060408b013567ffffffffffffffff811115610f6957610f68610c04565b5b610f758d828e01610e66565b975097505060608b013567ffffffffffffffff811115610f9857610f97610c04565b5b610fa48d828e01610e66565b95509550506080610fb78d828e01610ed3565b93505060a08b013567ffffffffffffffff811115610fd857610fd7610c04565b5b610fe48d828e01610e66565b92509250509295989b9194979a5092959850565b60006020828403121561100e5761100d610bff565b5b600061101c84828501610c2a565b91505092915050565b60006020828403121561103b5761103a610bff565b5b600061104984828501610c88565b91505092915050565b61105b81610c09565b82525050565b60006020820190506110766000830184611052565b92915050565b600080600080600080600080600060a08a8c03121561109e5761109d610bff565b5b60008a013567ffffffffffffffff8111156110bc576110bb610c04565b5b6110c88c828d01610e66565b995099505060208a013567ffffffffffffffff8111156110eb576110ea610c04565b5b6110f78c828d01610e66565b975097505060408a013567ffffffffffffffff81111561111a57611119610c04565b5b6111268c828d01610e66565b955095505060606111398c828d01610ed3565b93505060808a013567ffffffffffffffff81111561115a57611159610c04565b5b6111668c828d01610e66565b92509250509295985092959850929598565b7f4e487b7100000000000000000000000000000000000000000000000000000000600052603260045260246000fd5b7f4e487b7100000000000000000000000000000000000000000000000000000000600052602260045260246000fd5b600060028204905060018216806111ee57607f821691505b602082108103611201576112006111a7565b5b50919050565b600082905092915050565b7f4e487b7100000000000000000000000000000000000000000000000000000000600052604160045260246000fd5b60008190508160005260206000209050919050565b60006020601f8301049050919050565b600082821b905092915050565b6000600883026112a37fffffffffffffffffffffffffffffffffffffffffffffffffffffffffffffffff82611266565b6112ad8683611266565b95508019841693508086168417925050509392505050565b6000819050919050565b60006112ea6112e56112e084610c09565b6112c5565b610c09565b9050919050565b6000819050919050565b611304836112cf565b611318611310826112f1565b848454611273565b825550505050565b600090565b61132d611320565b6113388184846112fb565b505050565b5b8181101561135c57611351600082611325565b60018101905061133e565b5050565b601f8211156113a15761137281611241565b61137b84611256565b8101602085101561138a578190505b61139e61139685611256565b83018261133d565b50505b505050565b600082821c905092915050565b60006113c4600019846008026113a6565b1980831691505092915050565b60006113dd83836113b3565b9150826002028217905092915050565b6113f78383611207565b67ffffffffffffffff8111156114105761140f611212565b5b61141a82546111d6565b611425828285611360565b6000601f8311600181146114545760008415611442578287013590505b61144c85826113d1565b8655506114b4565b601f19841661146286611241565b60005b8281101561148a57848901358255600182019150602085019450602081019050611465565b868310156114a757848901356114a3601f8916826113b3565b8355505b6001600288020188555050505b50505050505050565b7f4e487b7100000000000000000000000000000000000000000000000000000000600052601160045260246000fd5b60006114f782610c09565b915061150283610c09565b925082820390508181111561151a576115196114bd565b5b92915050565b600061152b82610c09565b915061153683610c09565b925082820190508082111561154e5761154d6114bd565b5b92915050565b600081549050611563816111d6565b9050919050565b818103611578575050611650565b61158182611554565b67ffffffffffffffff81111561159a57611599611212565b5b6115a482546111d6565b6115af828285611360565b6000601f8311600181146115de57600084156115cc578287015490505b6115d685826113d1565b865550611649565b601f1984166115ec87611241565b96506115f786611241565b60005b8281101561161f578489015482556001820191506001850194506020810190506115fa565b8683101561163c5784890154611638601f8916826113b3565b8355505b6001600288020188555050505b5050505050505b565b600061165d82610c09565b91507fffffffffffffffffffffffffffffffffffffffffffffffffffffffffffffffff820361168f5761168e6114bd565b5b600182019050919050565b7f4e487b7100000000000000000000000000000000000000000000000000000000600052603160045260246000fd5b6116d282610cec565b67ffffffffffffffff8111156116eb576116ea611212565b5b6116f582546111d6565b611700828285611360565b600060209050601f8311600181146117335760008415611721578287015190505b61172b85826113d1565b865550611793565b601f19841661174186611241565b60005b8281101561176957848901518255600182019150602085019450602081019050611744565b868310156117865784890151611782601f8916826113b3565b8355505b6001600288020188555050505b50505050505056fea264697066735822122067c2a980250ac8b5f7cfa0933a6eeda907c27acbeeea535556e24940d064edee64736f6c63430008110033",
  "immutableReferences": {},
  "source": "// SPDX-License-Identifier: MIT\r\npragma solidity ^0.8.0;\r\n\r\ncontract Bloc {\r\n    struct Task {\r\n        uint256 id;\r\n        string title;\r\n        bool status;\r\n        string desc;\r\n        string priority;\r\n        string date;\r\n    }\r\n\r\n    mapping(address => Task[]) private tasks;\r\n    uint256 _id = 0;\r\n\r\n    function addTask(\r\n        string calldata _title,\r\n        string calldata _desc,\r\n        string calldata _priority,\r\n        bool _status,\r\n        string calldata _date\r\n    ) external {\r\n        tasks[msg.sender].push(\r\n            Task({\r\n                id: _id,\r\n                title: _title,\r\n                status: _status,\r\n                desc: _desc,\r\n                priority: _priority,\r\n                date: _date\r\n            })\r\n        );\r\n        _id++;\r\n    }\r\n\r\n    function getTask(uint256 id, address account) external view returns (Task memory) {\r\n        Task storage task = tasks[account][id];\r\n        return task;\r\n    }\r\n\r\n    function updateTask(\r\n        uint256 id,\r\n        string calldata _title,\r\n        string calldata _desc,\r\n        string calldata _priority,\r\n        bool _status,\r\n        string calldata _date\r\n    ) external {\r\n        tasks[msg.sender][id].title = _title;\r\n        tasks[msg.sender][id].status = _status;\r\n        tasks[msg.sender][id].desc = _desc;\r\n        tasks[msg.sender][id].priority = _priority;\r\n        tasks[msg.sender][id].date = _date;\r\n    }\r\n\r\n    function deleteTask(uint256 id) external {\r\n        for (uint256 i = id; i < tasks[msg.sender].length - 1; i++) {\r\n            tasks[msg.sender][i] = tasks[msg.sender][i + 1];\r\n        }\r\n        tasks[msg.sender].pop();\r\n    }\r\n\r\n    function getTaskCount(address account) external view returns (uint256) {\r\n        return tasks[account].length;\r\n    }\r\n}\r\n",
  "sourcePath": "D:\\Yahik_project\\task\\contracts\\Todo.sol",
  "compiler": {
    "name": "solc",
    "version": "0.8.17+commit.8df45f5f.Emscripten.clang"
  },
  "schemaVersion": "3.4.11",
  "updatedAt": "2022-12-22T04:49:02.119Z",
  "networkType": "ethereum",
  "devdoc": {
    "kind": "dev",
    "methods": {},
    "version": 1
  },
  "userdoc": {
    "kind": "user",
    "methods": {},
    "version": 1
  }
}